{
  "transactions": [
    {
      "hash": "0x8602d252e45d3627e648b9c3d8f4da95043e7a8060ba9646df284a24385adfcc",
      "transactionType": "CALL",
      "contractName": null,
      "contractAddress": "0x779877a7b0d9e8603169ddbd7836e478b4624789",
      "function": "transferAndCall(address,uint256,bytes)",
      "arguments": [
        "0x9DdfaCa8183c41ad55329BdeeD9F6A8d53168B1B",
        "3000000000000000000",
        "0xec72dd7e565684edaba46a288f4d8b710d05ee3841fd64f381a76ec01dd786d9"
      ],
      "transaction": {
        "from": "0xbeda537ee6dd75c9c2abceb109b9b98cfc3af70d",
        "to": "0x779877a7b0d9e8603169ddbd7836e478b4624789",
        "gas": "0x1c1ff",
        "value": "0x0",
        "input": "0x4000aea00000000000000000000000009ddfaca8183c41ad55329bdeed9f6a8d53168b1b00000000000000000000000000000000000000000000000029a2241af62c000000000000000000000000000000000000000000000000000000000000000000600000000000000000000000000000000000000000000000000000000000000020ec72dd7e565684edaba46a288f4d8b710d05ee3841fd64f381a76ec01dd786d9",
        "nonce": "0x0",
        "chainId": "0xaa36a7"
      },
      "additionalContracts": [],
      "isFixedGasLimit": false
    }
  ],
  "receipts": [
    {
      "status": "0x1",
      "cumulativeGasUsed": "0x1090619",
      "logs": [
        {
          "address": "0x779877a7b0d9e8603169ddbd7836e478b4624789",
          "topics": [
            "0xddf252ad1be2c89b69c2b068fc378daa952ba7f163c4a11628f55a4df523b3ef",
            "0x000000000000000000000000beda537ee6dd75c9c2abceb109b9b98cfc3af70d",
            "0x0000000000000000000000009ddfaca8183c41ad55329bdeed9f6a8d53168b1b"
          ],
          "data": "0x00000000000000000000000000000000000000000000000029a2241af62c0000",
          "blockHash": "0x6b8b0d3fef2fc2a1ee0d22c1c6bb81a2e24ba42d474b484544b31f1997051375",
          "blockNumber": "0x6d70a9",
          "transactionHash": "0x8602d252e45d3627e648b9c3d8f4da95043e7a8060ba9646df284a24385adfcc",
          "transactionIndex": "0x175",
          "logIndex": "0x89",
          "removed": false
        },
        {
          "address": "0x779877a7b0d9e8603169ddbd7836e478b4624789",
          "topics": [
            "0xe19260aff97b920c7df27010903aeb9c8d2be5d310a2c67824cf3f15396e4c16",
            "0x000000000000000000000000beda537ee6dd75c9c2abceb109b9b98cfc3af70d",
            "0x0000000000000000000000009ddfaca8183c41ad55329bdeed9f6a8d53168b1b"
          ],
          "data": "0x00000000000000000000000000000000000000000000000029a2241af62c000000000000000000000000000000000000000000000000000000000000000000400000000000000000000000000000000000000000000000000000000000000020ec72dd7e565684edaba46a288f4d8b710d05ee3841fd64f381a76ec01dd786d9",
          "blockHash": "0x6b8b0d3fef2fc2a1ee0d22c1c6bb81a2e24ba42d474b484544b31f1997051375",
          "blockNumber": "0x6d70a9",
          "transactionHash": "0x8602d252e45d3627e648b9c3d8f4da95043e7a8060ba9646df284a24385adfcc",
          "transactionIndex": "0x175",
          "logIndex": "0x8a",
          "removed": false
        },
        {
          "address": "0x9ddfaca8183c41ad55329bdeed9f6a8d53168b1b",
          "topics": [
            "0x1ced9348ff549fceab2ac57cd3a9de38edaaab274b725ee82c23e8fc8c4eec7a",
            "0xec72dd7e565684edaba46a288f4d8b710d05ee3841fd64f381a76ec01dd786d9"
          ],
          "data": "0x000000000000000000000000000000000000000000000000000000000000000000000000000000000000000000000000000000000000000029a2241af62c0000",
          "blockHash": "0x6b8b0d3fef2fc2a1ee0d22c1c6bb81a2e24ba42d474b484544b31f1997051375",
          "blockNumber": "0x6d70a9",
          "transactionHash": "0x8602d252e45d3627e648b9c3d8f4da95043e7a8060ba9646df284a24385adfcc",
          "transactionIndex": "0x175",
          "logIndex": "0x8b",
          "removed": false
        }
      ],
      "logsBloom": "0x00000004000000000000000000000000000000000020000000000000020000000000000000000000100000000000000000000000000000000000000000000000000000000000000000000008000000000000000000000000000020000020000008020000000000000000040000000000000000000000000000000010000040000000000000000000000000010000800000000020000000100000000000000000000000000000000000000000010000000000000000000000000004000000000000000002000000000000000000000000000000010000000100000000000000000010000000000100800000000000000000000000000000000000000000000000",
      "type": "0x2",
      "transactionHash": "0x8602d252e45d3627e648b9c3d8f4da95043e7a8060ba9646df284a24385adfcc",
      "transactionIndex": "0x175",
      "blockHash": "0x6b8b0d3fef2fc2a1ee0d22c1c6bb81a2e24ba42d474b484544b31f1997051375",
      "blockNumber": "0x6d70a9",
      "gasUsed": "0x133b1",
      "effectiveGasPrice": "0x263f0691",
      "from": "0xbeda537ee6dd75c9c2abceb109b9b98cfc3af70d",
      "to": "0x779877a7b0d9e8603169ddbd7836e478b4624789",
      "contractAddress": null
    }
  ],
  "libraries": [],
  "pending": [],
  "returns": {},
  "timestamp": 1732826235,
  "chain": 11155111,
  "commit": "7164b3f"
}